:100000000C9446000C94CC040C9466000C9466008E
:100010000C9466000C9466000C9466000C946600C8
:100020000C9466000C9466000C9466000C946600B8
:100030000C9466000C9466000C9466000C946600A8
:100040000C9466000C9466000C9466000C94660098
:100050000C9466000C9466000C9466000C94660088
:100060000C9466000C9466000C9466000C94660078
:100070000C9466000C9466000C9466000C94660068
:100080000C9466000C9466000C94660011241FBE4C
:10009000CFEFD0E1DEBFCDBF11E0A0E0B1E0E0E303
:1000A000F0E100E00BBF02C007900D92AA30B1074B
:1000B000D9F71BBE11E0AAE0B1E001C01D92A43443
:1000C000B107E1F70E9485020C9416080C94000019
:1000D0008FEF87BB8FB582688FBD8EB58A618EBD6D
:1000E0008FE19EE497BD86BD089583B78A6683BF7E
:1000F00085B58A6685BD0895CF93DF93EB019C019A
:10010000B901882777FD8095982F0E94C20623E3C6
:1001100033E343E250E40E9476070E948F0661BFFA
:10012000BE01882777FD8095982F0E94C20623E3A1
:1001300033E343E250E40E9476070E948F0663BDDA
:10014000DF91CF910895BC01665A7F4F882777FDD4
:100150008095982F0E94C2062BE734E146E351E4D4
:100160000E94760720E030E849E054E40E94BF0591
:100170000E949406DC01CB019BBD8ABD0895EAE68E
:10018000F0E080818260808389B7816089BF0895B3
:100190008F929F92AF92BF92CF92DF92EF92FF9297
:1001A0000F931F93CF93DF93C0E0D0E008E211E0FC
:1001B0000F2EF0E0CF2EF0E0DF2EF0E0EF2EF0E09B
:1001C000FF2EF02D0F2EF0E08F2EF0E09F2EF0E8A6
:1001D000AF2EFFE3BF2EF02D81B190E00C2E02C0B8
:1001E000959587950A94E2F780FD0CC0FE01EE0F0D
:1001F000FF1FEE0FFF1FE00FF11F80829182A2828E
:10020000B3820BC0FE01EE0FFF1FEE0FFF1FE00FCA
:10021000F11FC082D182E282F382FE01EE0FFF1F46
:10022000EE0FFF1FE00FF11F6081718182819381CA
:100230000E948F0641E00E9480052196C730D105BB
:1002400059F68DE061E00E945105DF91CF911F9139
:100250000F91FF90EF90DF90CF90BF90AF909F9065
:100260008F9008954F925F926F927F928F929F929C
:10027000AF92BF92CF92DF92EF92FF920F931F93B4
:10028000CF93DF93CDB7DEB72C970FB6F894DEBFD0
:100290000FBECDBF609128017091290180912A0184
:1002A00090912B0120912C0130912D0140912E0134
:1002B00050912F01E0903001F09031010091320116
:1002C00010913301E986FA860B871C8780903401F0
:1002D00090903501A0903601B090370140903801E0
:1002E0005090390160903A0170903B01E0903C01E0
:1002F000F0903D0100913E0110913F01E982FA82A8
:100300000B831C83E0904001F09041010091420179
:1003100010914301ED82FE820F8318870E94BF0572
:1003200029853A854B855C850E94BF05A50194010E
:100330000E94BF05A30192010E94BF0529813A8155
:100340004B815C810E94BF05A80197010E94BF05F7
:100350000E948F062B013C0180E090E0DC0180933D
:10036000240190932501A0932601B09327016624D0
:10037000772408E211E0F301EE0FFF1FEE0FFF1FDD
:10038000E00FF11FC080D180E280F38080902401D3
:1003900090902501A0902601B0902701B3016350F1
:1003A0007040882777FD8095982F0E94C206A7018C
:1003B00096010E947607A50194010E94BF05462F71
:1003C000572F682F792F4093240150932501609374
:1003D0002601709327010894611C711C87E0681640
:1003E000710449F6C0902401D0902501E0902601C7
:1003F000F090270107E010E004191509B8018827DB
:1004000077FD8095982F0E94C2069B01AC01C70121
:10041000B6010E942706462F572F682F792F409349
:100420002401509325016093260170932701043025
:1004300011050CF453C06091240170912501809145
:1004400026019091270120E030E0A9010E942306B7
:100450008823DCF4609124017091250180912601AC
:100460009091270120E030E040E85FE30E94BE0564
:10047000462F572F682F792F409324015093250141
:10048000609326017093270129C060912401709127
:100490002501809126019091270120E030E0A901FB
:1004A0000E9472071816D4F46091240170912501FE
:1004B000809126019091270120E030E040E85FE341
:1004C0000E94BF05462F572F682F792F4093240194
:1004D0005093250160932601709327012C960FB647
:1004E000F894DEBF0FBECDBFDF91CF911F910F916A
:1004F000FF90EF90DF90CF90BF90AF909F908F9044
:100500007F906F905F904F900895CF93DF9300D0CE
:1005100000D0CDB7DEB783E390E061E00E9429050B
:1005200012B8899888980E94BF0078940E94680049
:100530000E94750080E091E061E00E946D0580E01E
:1005400090E0DC0189839A83AB83BC8388244424B4
:10055000BB2410E001E033240F2EF4EB2F2EF02DFE
:10056000C0902001D0902101E0902201F090230161
:1005700069817A818B819C8120E030E0A9010E9411
:10058000BF05A70196010E94230688230CF070C0C6
:100590000E94C8008091240190912501A09126011C
:1005A000B091270180931C0190931D01A0931E011F
:1005B000B0931F010E9432016091240170912501C6
:1005C000809126019091270120911C0130911D01FD
:1005D00040911E0150911F010E94BE0520E030E0B5
:1005E00040E151E40E942706462F572F682F792FAC
:1005F0004093100150931101609312017093130105
:10060000C0901C01D0901D01E0901E01F0901F01D0
:10061000609110017091110180911201909113016C
:10062000209120013091210140912201509123011C
:100630000E9476079B01AC01C701B6010E94BE056E
:10064000462F572F682F792F40930C0150930D019F
:1006500060930E0170930F01809120019091210110
:10066000A0912201B091230189839A83AB83BC833B
:100670008091180190911901A0911A01B0911B016C
:100680008093140190931501A0931601B093170164
:1006900060911001709111018091120190911301EC
:1006A000209120013091210140912201509123019C
:1006B000C0900C01D0900D01E0900E01F0900F0160
:1006C0000E947607A70196010E94BF05462F572F6B
:1006D000682F792F409318015093190160931A01E4
:1006E00070931B01A8E2B1E06D917D918D919C9179
:1006F000F02E20E030E040E85FE30E942306811105
:10070000F32CFF2009F468C0ECE2F1E06081718114
:1007100082819381F02E20E030E040E85FE30E9488
:1007200023068111F32CFF2009F456C0A0E3B1E0A9
:100730006D917D918D919C91F02E20E030E040E80C
:100740005FE30E9423068111F32CFF2009F444C0CB
:10075000E4E3F1E06081718182819381F02E20E0F9
:1007600030E040E85FE30E9423068111F32CFF2074
:1007700099F1A8E3B1E06D917D918D919C91F02E5E
:1007800020E030E040E85FE30E9423068111F32C73
:10079000FF2011F1ECE3F1E06081718182819381AE
:1007A000F02E20E030E040E85FE30E942306811154
:1007B000F32CFF2089F0A0E4B1E06D917D918D9143
:1007C0009C91F02E20E030E040E85FE30E94230699
:1007D0008111F32CFF2081F56091180170911901AE
:1007E00080911A0190911B01C0901801D0901901BD
:1007F000E0901A01F0901B01809014019090150177
:10080000A0901601B090170120E030E040E251E4E2
:100810000E9476072B013C01C701B601A501940196
:100820000E94BE059B01AC01C301B2010E94BF053D
:10083000862E472EB82E192F882D942DAB2DB12F33
:10084000BC01CD0120E030E044EB52E40E9472078D
:1008500018160CF481C0882D942DAB2DB12FBC013E
:10086000CD0120E030E044EB52EC0E9423068823C7
:100870000CF45EC0882D942DAB2DB12FBC01CD01A1
:100880000E948F06402F0E9480058DE0602F0E94FD
:100890005105882D942DAB2DB12FBC01CD010E94A7
:1008A0008F06DC01CB010E94A300882D942DAB2D77
:1008B000B12FBC01CD01C82CD42CEB2CF12EA701FB
:1008C00096010E947607D62EF72EE82EC92E862F87
:1008D0009F2DAE2DBC2DBC01CD0120E030E041E6C6
:1008E00053E40E94230618163CF080E590E060E592
:1008F00070E00E947C0034CE8D2D9F2DAE2DBC2D3E
:10090000BC01CD0120E030E048EC53E40E94230616
:1009100018163CF086E490E066E470E00E947C00EB
:100920001FCE8CE390E06CE370E00E947C0018CE58
:1009300066EA7FEF8FEF9FEF402F0E9480058DE0EA
:10094000602F0E94510586EA9FEF0E94A300832C2E
:10095000432CB22C12ECE5CF6AE570E080E090E029
:10096000402F0E9480058DE0602F0E9451058AE58E
:1009700090E00E94A300D32CFF246894F5F80F2E7A
:10098000FDEFEF2EF02D0F2EF5E4CF2EF02D832C62
:10099000432CB22C12E4B0CF1F920F920FB60F92DD
:1009A0000BB60F9211242F933F934F935F936F9346
:1009B0007F938F939F93AF93BF93EF93FF93819B0D
:1009C0001BC06091200170912101809122019091C2
:1009D000230126EC33E348E65DE30E94BF05462F82
:1009E000572F682F792F4093200150932101609356
:1009F0002201709323011AC060912001709121019E
:100A0000809122019091230126EC33E348E65DE3D7
:100A10000E94BE05462F572F682F792F4093200143
:100A2000509321016093220170932301FF91EF9174
:100A3000BF91AF919F918F917F916F915F914F91F6
:100A40003F912F910F900BBE0F900FBE0F901F90F4
:100A500018957894662379F0909398008093990084
:100A6000EAE9F0E0808188618083EDE9F0E080814F
:100A70008660808308959093900089B98AB18861D7
:100A80008AB9E5E9F0E08081866080830895882353
:100A900031F0EAE9F0E08081806880830895579A18
:100AA0000895662341F0EBE9F0E0908195FFFDCFDA
:100AB00080939C0008955D9BFECF8CB90895882398
:100AC00041F0EBE9F0E080818823ECF780919C0015
:100AD00008955F9BFECF8CB108951F93CF93DF9352
:100AE000EC01162F8881882339F02196612F0E940E
:100AF000510589918823D1F7DF91CF911F910895F6
:100B0000BF92CF92DF92EF92FF920F931F93CF93FA
:100B1000DF936B017C01C42F992364F48DE2642F71
:100B20000E945105F094E094D094C094C11CD11C53
:100B3000E11CF11C8AE0C816D104E104F1047CF048
:100B4000C701B6012AE030E040E050E00E94D9073A
:100B5000D62FCA01B9014C2F0E948005CD2E8C2DB5
:100B6000805D6C2F0E945105DF91CF911F910F91F5
:100B7000FF90EF90DF90CF90BF9008955058BB2723
:100B8000AA270ED075C166D130F06BD120F031F4B8
:100B90009F3F11F41EF45BC10EF4E095E7FB51C1D9
:100BA000E92F77D180F3BA17620773078407950797
:100BB00018F071F49EF58FC10EF4E0950B2EBA2F4C
:100BC000A02D0B01B90190010C01CA01A001112453
:100BD000FF27591B99F0593F50F4503E68F11A16FF
:100BE000F040A22F232F342F4427585FF3CF469590
:100BF00037952795A795F0405395C9F77EF41F16B2
:100C0000BA0B620B730B840BBAF09150A1F0FF0F7B
:100C1000BB1F661F771F881FC2F70EC0BA0F621F67
:100C2000731F841F48F4879577956795B795F79557
:100C30009E3F08F0B3CF9395880F08F09927EE0FE9
:100C4000979587950895D9D008F481E008950CD040
:100C50000FC107D140F0FED030F021F45F3F19F012
:100C6000F0C0511139C1F3C014D198F39923C9F3DD
:100C70005523B1F3951B550BBB27AA2762177307A2
:100C8000840738F09F5F5F4F220F331F441FAA1F56
:100C9000A9F333D00E2E3AF0E0E830D09150504016
:100CA000E695001CCAF729D0FE2F27D0660F771FC4
:100CB000881FBB1F261737074807AB07B0E809F0A6
:100CC000BB0B802DBF01FF2793585F4F2AF09E3F3B
:100CD000510568F0B6C000C15F3FECF3983EDCF30D
:100CE000869577956795B795F7959F5FC9F7880FB4
:100CF000911D9695879597F90895E1E0660F771F06
:100D0000881FBB1F621773078407BA0720F0621B96
:100D1000730B840BBA0BEE1F88F7E095089504D08F
:100D20006894B111D9C00895BCD088F09F5790F055
:100D3000B92F9927B751A0F0D1F0660F771F881F00
:100D4000991F1AF0BA95C9F712C0B13081F0C3D01B
:100D5000B1E00895C0C0672F782F8827B85F39F0B9
:100D6000B93FCCF3869577956795B395D9F73EF45F
:100D700090958095709561957F4F8F4F9F4F089507
:100D8000E89409C097FB3EF4909580957095619525
:100D90007F4F8F4F9F4F9923A9F0F92F96E9BB27DB
:100DA0009395F695879577956795B795F111F8CF57
:100DB000FAF4BB0F11F460FF1BC06F5F7F4F8F4FC2
:100DC0009F4F16C0882311F096E911C0772321F0B8
:100DD0009EE8872F762F05C0662371F096E8862F50
:100DE00070E060E02AF09A95660F771F881FDAF7A7
:100DF000880F9695879597F90895990F0008550FD4
:100E0000AA0BE0E8FEEF16161706E807F907C0F090
:100E100012161306E407F50798F0621B730B840B98
:100E2000950B39F40A2661F0232B242B252B21F472
:100E300008950A2609F4A140A6958FEF811D811D12
:100E4000089597F99F6780E870E060E008959FEF4C
:100E500080EC089500240A94161617061806090651
:100E6000089500240A941216130614060506089520
:100E7000092E0394000C11F4882352F0BB0F40F4A8
:100E8000BF2B11F460FF04C06F5F7F4F8F4F9F4FE8
:100E9000089557FD9058440F551F59F05F3F71F06A
:100EA0004795880F97FB991F61F09F3F79F08795D1
:100EB0000895121613061406551FF2CF4695F1DF5A
:100EC00008C0161617061806991FF1CF86957105EA
:100ED000610508940895E894BB2766277727CB011E
:100EE00097F908958ADF08F48FEF08950BD0C0CFEB
:100EF000B1DF28F0B6DF18F0952309F0A2CFA7CF15
:100F00001124EACFC6DFA0F3959FD1F3950F50E0EF
:100F1000551F629FF001729FBB27F00DB11D639FAB
:100F2000AA27F00DB11DAA1F649F6627B00DA11D51
:100F3000661F829F2227B00DA11D621F739FB00DF7
:100F4000A11D621F839FA00D611D221F749F332767
:100F5000A00D611D231F849F600D211D822F762F00
:100F60006A2F11249F5750408AF0E1F088234AF0FD
:100F7000EE0FFF1FBB1F661F771F881F9150504049
:100F8000A9F79E3F510570F05CCFA6CF5F3FECF311
:100F9000983EDCF3869577956795B795F795E79535
:100FA0009F5FC1F7FE2B880F911D9695879597F946
:100FB000089597FB092E05260ED057FD04D014D0B6
:100FC0000AD0001C38F450954095309521953F4F3C
:100FD0004F4F5F4F0895F6F7909580957095619506
:100FE0007F4F8F4F9F4F0895A1E21A2EAA1BBB1B64
:100FF000FD010DC0AA1FBB1FEE1FFF1FA217B307E5
:10100000E407F50720F0A21BB30BE40BF50B661FFA
:10101000771F881F991F1A9469F7609570958095BE
:1010200090959B01AC01BD01CF010895F894FFCFCD
:0A1030007374617274696E6700004A
:00000001FF
